:100000000C942A000C94A3000C9447000C94470015
:100010000C9447000C9447000C9447000C94470044
:100020000C9447000C9447000C9447000C94470034
:100030000C9447000C9447000C9447000C94470024
:100040000C9447000C9447000C9447000C94470014
:100050000C94470011241FBECFE5D4E0DEBFCDBF16
:1000600011E0A0E6B0E0E0ECF4E002C005900D92F3
:10007000A835B107D9F711E0A8E5B1E001C01D929C
:10008000A736B107E1F70E9452010C945E020C946E
:100090000000982F9F7082958F708A3018F4282F57
:1000A000205D02C0282F295C9A3018F4892F805DCA
:1000B00002C0892F895C5D9BFECF2CB95D9BFECF72
:1000C0008CB908955D9BFECF8CB908955D9BFECFE2
:1000D0008DE08CB95D9BFECF8AE08CB9089520E05D
:1000E00004C05D9BFECFECB92F5FFC01E20FF11D58
:1000F000E081EE23B1F70895C4988F778FB9779B8D
:10010000FECFFB0190E006C01FB8779BFECF8FB1FA
:1001100081939F5F9417C0F3C49A0895C498806830
:100120008FB9779BFECF6FB9779BFECFC49A0895A6
:10013000C4988F778FB9779BFECF1FB8779BFECF80
:10014000C49A8FB108951F920F920FB60F92112487
:100150001F932F933F934F935F936F937F938F934F
:100160009F93AF93BF93EF93FF9383E00E94980018
:10017000182F84E00E94980013701130C1F487E0BA
:1001800061E00E948E0088E062E00E948E0088E0BC
:1001900060E00E948E00C19888E893E128EB30E08F
:1001A000F9013197F1F70197D9F7C19A65C012307B
:1001B00009F066C087E061E00E948E008FE768E585
:1001C00071E045E00E947C0088E062E00E948E00C1
:1001D00088E060E00E948E0080E690E00E946F0060
:1001E000809158010E94490083E790E00E946F00CF
:1001F000809159010E9449008CE890E00E946F00B4
:1002000086E20E9498000E94490083EA90E00E94E2
:100210006F0083E70E9498000E9449008EEB90E0F7
:100220000E946F0084E70E9498000E94490089EDB7
:1002300090E00E946F0080915A010E9449008DEE6B
:1002400090E00E946F0080915B010E94490081E074
:1002500091E00E946F0080915C010E9449000E9421
:100260006600C29888E893E128EB30E0F901319705
:10027000F1F70197D9F7C29A87E065E00E948E00F6
:10028000FF91EF91BF91AF919F918F917F916F916E
:100290005F914F913F912F911F910F900FBE0F9043
:1002A0001F90189586EB87BBC09AC19AC29A11BA63
:1002B00012BA15BE80E48BBF83E089B910BC86E812
:1002C00080BD88E18AB9C49A80E58DB981E08EB994
:1002D0008CED95E028EB30E0F9013197F1F70197CB
:1002E000D9F787E060E80E948E008CED95E028EB5E
:1002F00030E0F9013197F1F70197D9F785E060E037
:100300000E948E0086E060E00E948E0083E00E94E2
:10031000980084E00E94980087E061E00E948E00CF
:100320008AE56FE70E948E0088E560E80E948E00F3
:1003300089E560E40E948E008AE66BE00E948E00F0
:1003400088E664E00E948E008FE163E00E948E00E8
:1003500089E06DE70E948E008AE060E00E948E00D6
:100360008BE062ED0E948E008CE065ED0E948E00B5
:100370008DE060E00E948E008FE060E70E948E00BA
:1003800080E160E00E948E0082E160E00E948E00C9
:1003900083E160E00E948E008CE164E00E948E00A8
:1003A0008DE160E40E948E008EE165E00E948E0087
:1003B00080E268EC0E948E0081E260E00E948E0084
:1003C00082E263EA0E948E0083E267ED0E948E0063
:1003D00084E260E00E948E0085E266EA0E948E0060
:1003E00080E36EE80E948E0082E360E00E948E004F
:1003F00083E362E00E948E0084E360E10E948E004D
:1004000085E360E30E948E0086E36DE20E948E0029
:1004100087E364ED0E948E0089E660E20E948E0010
:100420008DE660E00E948E0080E761E20E948E000F
:1004300081E763E20E948E0082E760E40E948E0002
:100440008EE663EA0E948E008FE667ED0E948E00C2
:1004500083E760E00E948E0084E760E00E948E00E7
:1004600089E760E00E948E008AE760E00E948E00CB
:1004700085E763E50E948E0086E762E60E948E00B3
:1004800087E760E00E948E0085E063E00E948E00B6
:1004900088E062E00E948E0088E060E00E948E00AA
:1004A00085E191E00E946F0082E491E00E946F007C
:1004B00087E065E00E948E007894FFCFF894FFCF2C
:1004C0000D0A49442043766F7261205B6865785D50
:1004D0003A20000D0A4261746572696A61204376B0
:1004E0006F7261205B6865785D3A20000D0A525397
:1004F0005349206C6F6B616C6E6F205B6865785D33
:100500003A20000D0A4146432030783733206C6F83
:100510006B616C6E6F205B6865785D3A20000D0A38
:100520004146432030783734206C6F6B616C6E6FBE
:10053000205B6865785D3A20000D0A506F64617435
:10054000616B2031205B6865785D3A20000D0A50B0
:100550006F646174616B2032205B6865785D3A205E
:10056000000D0A506F646174616B2033205B686515
:10057000785D3A20005072696A656D6E6920637615
:100580006F722056312E322041546D6567613136CD
:100590004C2B52464D323228536934343332290DB4
:1005A0000A002D2D617269616E406B7365742E6F48
:0805B00072672D2D0D0A0000F9
:00000001FF
